{"abi":[{"type":"constructor","inputs":[{"name":"_implementation","type":"address","internalType":"address"}],"stateMutability":"nonpayable"},{"type":"function","name":"campaigns","inputs":[{"name":"","type":"uint256","internalType":"uint256"}],"outputs":[{"name":"","type":"address","internalType":"address"}],"stateMutability":"view"},{"type":"function","name":"campaignsByFundraiser","inputs":[{"name":"","type":"address","internalType":"address"},{"name":"","type":"uint256","internalType":"uint256"}],"outputs":[{"name":"","type":"address","internalType":"address"}],"stateMutability":"view"},{"type":"function","name":"createCampaign","inputs":[{"name":"_name","type":"string","internalType":"string"},{"name":"_description","type":"string","internalType":"string"},{"name":"_target","type":"uint256","internalType":"uint256"},{"name":"_deadline","type":"uint256","internalType":"uint256"},{"name":"_withdrawalLimit","type":"uint256","internalType":"uint256"},{"name":"milestoneDescriptions","type":"string[]","internalType":"string[]"}],"outputs":[],"stateMutability":"nonpayable"},{"type":"function","name":"getAllCampaigns","inputs":[],"outputs":[{"name":"","type":"address[]","internalType":"address[]"}],"stateMutability":"view"},{"type":"function","name":"getCampaignsByFundraiser","inputs":[{"name":"_fundraiser","type":"address","internalType":"address"}],"outputs":[{"name":"","type":"address[]","internalType":"address[]"}],"stateMutability":"view"},{"type":"function","name":"implementation","inputs":[],"outputs":[{"name":"","type":"address","internalType":"address"}],"stateMutability":"view"},{"type":"event","name":"CampaignCreated","inputs":[{"name":"fundraiser","type":"address","indexed":true,"internalType":"address"},{"name":"campaignAddress","type":"address","indexed":true,"internalType":"address"},{"name":"name","type":"string","indexed":false,"internalType":"string"},{"name":"description","type":"string","indexed":false,"internalType":"string"},{"name":"target","type":"uint256","indexed":false,"internalType":"uint256"},{"name":"deadline","type":"uint256","indexed":false,"internalType":"uint256"},{"name":"milestoneDescriptions","type":"string[]","indexed":false,"internalType":"string[]"}],"anonymous":false}],"bytecode":{"object":"0x6080604052348015600f57600080fd5b50604051610954380380610954833981016040819052602c916050565b600080546001600160a01b0319166001600160a01b0392909216919091179055607e565b600060208284031215606157600080fd5b81516001600160a01b0381168114607757600080fd5b9392505050565b6108c78061008d6000396000f3fe608060405234801561001057600080fd5b50600436106100625760003560e01c8063141961bc14610067578063594c5937146100975780635c60da1b146100b75780635ecb8f5b146100ca5780635fabfcd3146100df57806386cdf604146100f2575b600080fd5b61007a61007536600461046b565b6100fa565b6040516001600160a01b0390911681526020015b60405180910390f35b6100aa6100a53660046104a0565b610124565b60405161008e91906104c2565b60005461007a906001600160a01b031681565b6100dd6100d83660046105c5565b61019a565b005b61007a6100ed36600461070c565b61037f565b6100aa6103b7565b6001818154811061010a57600080fd5b6000918252602090912001546001600160a01b0316905081565b6001600160a01b03811660009081526002602090815260409182902080548351818402810184019094528084526060939283018282801561018e57602002820191906000526020600020905b81546001600160a01b03168152600190910190602001808311610170575b50505050509050919050565b600084116101ef5760405162461bcd60e51b815260206004820181905260248201527f546172676574206d7573742062652067726561746572207468616e207a65726f60448201526064015b60405180910390fd5b42831161023e5760405162461bcd60e51b815260206004820152601e60248201527f446561646c696e65206d75737420626520696e2074686520667574757265000060448201526064016101e6565b60008054610254906001600160a01b0316610419565b604051634bd1c3a360e11b81529091506001600160a01b038216906397a387469061028f908a908a908a908a908a908a9033906004016107d8565b600060405180830381600087803b1580156102a957600080fd5b505af11580156102bd573d6000803e3d6000fd5b50506001805480820182557fb10e2d527612073b26eecdfd717e6a320cf44b4afac2b0732d9fcbe2b7fa0cf60180546001600160a01b0386166001600160a01b0319918216811790925533600081815260026020908152604080832080549788018155835291209094018054909216831790915591519093509091507fea36668c7ecbd6924e2fd01abe305884d0cd346b2436f3c52e7ce212cc87a9ac9061036e908b908b908b908b908a90610840565b60405180910390a350505050505050565b6002602052816000526040600020818154811061039b57600080fd5b6000918252602090912001546001600160a01b03169150829050565b6060600180548060200260200160405190810160405280929190818152602001828054801561040f57602002820191906000526020600020905b81546001600160a01b031681526001909101906020018083116103f1575b5050505050905090565b6000808260601b9050604051733d602d80600a3d3981f3363d3d373d3d3d363d7360601b81528160148201526e5af43d82803e903d91602b57fd5bf360881b60288201526037816000f0949350505050565b60006020828403121561047d57600080fd5b5035919050565b80356001600160a01b038116811461049b57600080fd5b919050565b6000602082840312156104b257600080fd5b6104bb82610484565b9392505050565b602080825282518282018190526000918401906040840190835b818110156105035783516001600160a01b03168352602093840193909201916001016104dc565b509095945050505050565b634e487b7160e01b600052604160045260246000fd5b604051601f8201601f1916810167ffffffffffffffff8111828210171561054d5761054d61050e565b604052919050565b600082601f83011261056657600080fd5b813567ffffffffffffffff8111156105805761058061050e565b610593601f8201601f1916602001610524565b8181528460208386010111156105a857600080fd5b816020850160208301376000918101602001919091529392505050565b60008060008060008060c087890312156105de57600080fd5b863567ffffffffffffffff8111156105f557600080fd5b61060189828a01610555565b965050602087013567ffffffffffffffff81111561061e57600080fd5b61062a89828a01610555565b95505060408701359350606087013592506080870135915060a087013567ffffffffffffffff81111561065c57600080fd5b8701601f8101891361066d57600080fd5b803567ffffffffffffffff8111156106875761068761050e565b8060051b61069760208201610524565b9182526020818401810192908101908c8411156106b357600080fd5b6020850192505b838310156106fa57823567ffffffffffffffff8111156106d957600080fd5b6106e88e602083890101610555565b835250602092830192909101906106ba565b80955050505050509295509295509295565b6000806040838503121561071f57600080fd5b61072883610484565b946020939093013593505050565b6000815180845260005b8181101561075c57602081850181015186830182015201610740565b506000602082860101526020601f19601f83011685010191505092915050565b600082825180855260208501945060208160051b8301016020850160005b838110156107cc57601f198584030188526107b6838351610736565b602098890198909350919091019060010161079a565b50909695505050505050565b60e0815260006107eb60e083018a610736565b82810360208401526107fd818a610736565b905087604084015286606084015285608084015282810360a0840152610823818661077c565b91505060018060a01b03831660c083015298975050505050505050565b60a08152600061085360a0830188610736565b82810360208401526108658188610736565b90508560408401528460608401528281036080840152610885818561077c565b9897505050505050505056fea26469706673582212207db91d3933232d94e9d85c1f748752e27f63fa1ccea92d4e8d985244af77c1ec64736f6c634300081a0033","linkReferences":{}},"methodIdentifiers":{"campaigns(uint256)":"141961bc","campaignsByFundraiser(address,uint256)":"5fabfcd3","createCampaign(string,string,uint256,uint256,uint256,string[])":"5ecb8f5b","getAllCampaigns()":"86cdf604","getCampaignsByFundraiser(address)":"594c5937","implementation()":"5c60da1b"},"id":23}