{
    "abi": [
        {
            "type": "function",
            "name": "amountRaised",
            "inputs": [],
            "outputs": [
                {
                    "name": "",
                    "type": "uint256",
                    "internalType": "uint256"
                }
            ],
            "stateMutability": "view"
        },
        {
            "type": "function",
            "name": "campaignEnded",
            "inputs": [],
            "outputs": [
                {
                    "name": "",
                    "type": "bool",
                    "internalType": "bool"
                }
            ],
            "stateMutability": "view"
        },
        {
            "type": "function",
            "name": "contribute",
            "inputs": [],
            "outputs": [],
            "stateMutability": "payable"
        },
        {
            "type": "function",
            "name": "contributions",
            "inputs": [
                {
                    "name": "",
                    "type": "address",
                    "internalType": "address"
                }
            ],
            "outputs": [
                {
                    "name": "",
                    "type": "uint256",
                    "internalType": "uint256"
                }
            ],
            "stateMutability": "view"
        },
        {
            "type": "function",
            "name": "deadline",
            "inputs": [],
            "outputs": [
                {
                    "name": "",
                    "type": "uint256",
                    "internalType": "uint256"
                }
            ],
            "stateMutability": "view"
        },
        {
            "type": "function",
            "name": "description",
            "inputs": [],
            "outputs": [
                {
                    "name": "",
                    "type": "string",
                    "internalType": "string"
                }
            ],
            "stateMutability": "view"
        },
        {
            "type": "function",
            "name": "endCampaign",
            "inputs": [],
            "outputs": [],
            "stateMutability": "nonpayable"
        },
        {
            "type": "function",
            "name": "fundraiser",
            "inputs": [],
            "outputs": [
                {
                    "name": "",
                    "type": "address",
                    "internalType": "address"
                }
            ],
            "stateMutability": "view"
        },
        {
            "type": "function",
            "name": "getContributors",
            "inputs": [],
            "outputs": [
                {
                    "name": "",
                    "type": "address[]",
                    "internalType": "address[]"
                }
            ],
            "stateMutability": "view"
        },
        {
            "type": "function",
            "name": "getMilestones",
            "inputs": [],
            "outputs": [
                {
                    "name": "",
                    "type": "tuple[]",
                    "internalType": "struct Crowdfunding.Milestone[]",
                    "components": [
                        {
                            "name": "description",
                            "type": "string",
                            "internalType": "string"
                        },
                        {
                            "name": "votes",
                            "type": "uint256",
                            "internalType": "uint256"
                        },
                        {
                            "name": "completed",
                            "type": "bool",
                            "internalType": "bool"
                        },
                        {
                            "name": "withdrawalRequested",
                            "type": "bool",
                            "internalType": "bool"
                        }
                    ]
                }
            ],
            "stateMutability": "view"
        },
        {
            "type": "function",
            "name": "initialize",
            "inputs": [
                {
                    "name": "_name",
                    "type": "string",
                    "internalType": "string"
                },
                {
                    "name": "_description",
                    "type": "string",
                    "internalType": "string"
                },
                {
                    "name": "_target",
                    "type": "uint256",
                    "internalType": "uint256"
                },
                {
                    "name": "_deadline",
                    "type": "uint256",
                    "internalType": "uint256"
                },
                {
                    "name": "_withdrawalLimit",
                    "type": "uint256",
                    "internalType": "uint256"
                },
                {
                    "name": "milestoneDescriptions",
                    "type": "string[]",
                    "internalType": "string[]"
                },
                {
                    "name": "_fundraiser",
                    "type": "address",
                    "internalType": "address"
                }
            ],
            "outputs": [],
            "stateMutability": "nonpayable"
        },
        {
            "type": "function",
            "name": "majority",
            "inputs": [],
            "outputs": [
                {
                    "name": "",
                    "type": "uint256",
                    "internalType": "uint256"
                }
            ],
            "stateMutability": "view"
        },
        {
            "type": "function",
            "name": "milestones",
            "inputs": [
                {
                    "name": "",
                    "type": "uint256",
                    "internalType": "uint256"
                }
            ],
            "outputs": [
                {
                    "name": "description",
                    "type": "string",
                    "internalType": "string"
                },
                {
                    "name": "votes",
                    "type": "uint256",
                    "internalType": "uint256"
                },
                {
                    "name": "completed",
                    "type": "bool",
                    "internalType": "bool"
                },
                {
                    "name": "withdrawalRequested",
                    "type": "bool",
                    "internalType": "bool"
                }
            ],
            "stateMutability": "view"
        },
        {
            "type": "function",
            "name": "name",
            "inputs": [],
            "outputs": [
                {
                    "name": "",
                    "type": "string",
                    "internalType": "string"
                }
            ],
            "stateMutability": "view"
        },
        {
            "type": "function",
            "name": "releaseFunds",
            "inputs": [
                {
                    "name": "index",
                    "type": "uint256",
                    "internalType": "uint256"
                }
            ],
            "outputs": [],
            "stateMutability": "nonpayable"
        },
        {
            "type": "function",
            "name": "requestRefund",
            "inputs": [],
            "outputs": [],
            "stateMutability": "nonpayable"
        },
        {
            "type": "function",
            "name": "requestWithdrawalForMilestone",
            "inputs": [
                {
                    "name": "index",
                    "type": "uint256",
                    "internalType": "uint256"
                }
            ],
            "outputs": [],
            "stateMutability": "nonpayable"
        },
        {
            "type": "function",
            "name": "target",
            "inputs": [],
            "outputs": [
                {
                    "name": "",
                    "type": "uint256",
                    "internalType": "uint256"
                }
            ],
            "stateMutability": "view"
        },
        {
            "type": "function",
            "name": "totalContributions",
            "inputs": [],
            "outputs": [
                {
                    "name": "",
                    "type": "uint256",
                    "internalType": "uint256"
                }
            ],
            "stateMutability": "view"
        },
        {
            "type": "function",
            "name": "voteOnMilestone",
            "inputs": [
                {
                    "name": "index",
                    "type": "uint256",
                    "internalType": "uint256"
                }
            ],
            "outputs": [],
            "stateMutability": "nonpayable"
        },
        {
            "type": "function",
            "name": "withdrawalLimit",
            "inputs": [],
            "outputs": [
                {
                    "name": "",
                    "type": "uint256",
                    "internalType": "uint256"
                }
            ],
            "stateMutability": "view"
        },
        {
            "type": "event",
            "name": "CampaignEnded",
            "inputs": [
                {
                    "name": "successful",
                    "type": "bool",
                    "indexed": false,
                    "internalType": "bool"
                }
            ],
            "anonymous": false
        },
        {
            "type": "event",
            "name": "ContributionMade",
            "inputs": [
                {
                    "name": "contributor",
                    "type": "address",
                    "indexed": true,
                    "internalType": "address"
                },
                {
                    "name": "amount",
                    "type": "uint256",
                    "indexed": false,
                    "internalType": "uint256"
                }
            ],
            "anonymous": false
        },
        {
            "type": "event",
            "name": "FundsReleased",
            "inputs": [
                {
                    "name": "milestoneIndex",
                    "type": "uint256",
                    "indexed": false,
                    "internalType": "uint256"
                },
                {
                    "name": "amount",
                    "type": "uint256",
                    "indexed": false,
                    "internalType": "uint256"
                }
            ],
            "anonymous": false
        },
        {
            "type": "event",
            "name": "FundsRequested",
            "inputs": [
                {
                    "name": "milestoneIndex",
                    "type": "uint256",
                    "indexed": false,
                    "internalType": "uint256"
                }
            ],
            "anonymous": false
        },
        {
            "type": "event",
            "name": "Initialized",
            "inputs": [
                {
                    "name": "version",
                    "type": "uint64",
                    "indexed": false,
                    "internalType": "uint64"
                }
            ],
            "anonymous": false
        },
        {
            "type": "event",
            "name": "RefundIssued",
            "inputs": [
                {
                    "name": "contributor",
                    "type": "address",
                    "indexed": true,
                    "internalType": "address"
                },
                {
                    "name": "amount",
                    "type": "uint256",
                    "indexed": false,
                    "internalType": "uint256"
                }
            ],
            "anonymous": false
        },
        {
            "type": "event",
            "name": "VoteCasted",
            "inputs": [
                {
                    "name": "voter",
                    "type": "address",
                    "indexed": true,
                    "internalType": "address"
                },
                {
                    "name": "milestoneIndex",
                    "type": "uint256",
                    "indexed": false,
                    "internalType": "uint256"
                },
                {
                    "name": "votes",
                    "type": "uint256",
                    "indexed": false,
                    "internalType": "uint256"
                }
            ],
            "anonymous": false
        },
        {
            "type": "error",
            "name": "InvalidInitialization",
            "inputs": []
        },
        {
            "type": "error",
            "name": "NotInitializing",
            "inputs": []
        }
    ],
    "bytecode": {
        "object": "0x6080604052348015600f57600080fd5b506119df8061001f6000396000f3fe60806040526004361061012a5760003560e01c80637b3e5e7b116100ab578063b6e54bdf1161006f578063b6e54bdf14610326578063bda1d5951461033c578063d4b839921461035c578063d5cef13314610372578063d7bb99ba14610387578063e89e4ed61461038f57600080fd5b80637b3e5e7b146102805780637ddfe78d1461029657806389585d10146102ac57806397a38746146102e4578063af157c191461030457600080fd5b80634d68282f116100f25780634d68282f146101f2578063629e4ed01461021457806371aac7f9146102365780637284e4161461024b5780637a6f45181461026057600080fd5b806306fdde031461012f57806329dcb0cf1461015a57806337c089231461017e5780633bc47fbe1461019457806342e94c90146101c5575b600080fd5b34801561013b57600080fd5b506101446103bf565b604051610151919061138b565b60405180910390f35b34801561016657600080fd5b5061017060035481565b604051908152602001610151565b34801561018a57600080fd5b5061017060065481565b3480156101a057600080fd5b50600a546101b590600160a01b900460ff1681565b6040519015158152602001610151565b3480156101d157600080fd5b506101706101e03660046113c1565b60086020526000908152604090205481565b3480156101fe57600080fd5b5061021261020d3660046113dc565b61044d565b005b34801561022057600080fd5b50610229610667565b60405161015191906113f5565b34801561024257600080fd5b50610212610787565b34801561025757600080fd5b5061014461086a565b34801561026c57600080fd5b5061021261027b3660046113dc565b610877565b34801561028c57600080fd5b5061017060055481565b3480156102a257600080fd5b5061017060045481565b3480156102b857600080fd5b50600a546102cc906001600160a01b031681565b6040516001600160a01b039091168152602001610151565b3480156102f057600080fd5b506102126102ff36600461153f565b610a50565b34801561031057600080fd5b50610319610d70565b6040516101519190611698565b34801561033257600080fd5b50610170600b5481565b34801561034857600080fd5b506102126103573660046113dc565b610dd2565b34801561036857600080fd5b5061017060025481565b34801561037e57600080fd5b50610212610ed4565b610212611079565b34801561039b57600080fd5b506103af6103aa3660046113dc565b611276565b60405161015194939291906116e4565b600080546103cc90611715565b80601f01602080910402602001604051908101604052809291908181526020018280546103f890611715565b80156104455780601f1061041a57610100808354040283529160200191610445565b820191906000526020600020905b81548152906001019060200180831161042857829003601f168201915b505050505081565b600a546001600160a01b031633146104805760405162461bcd60e51b81526004016104779061174f565b60405180910390fd5b600754819081106104a35760405162461bcd60e51b815260040161047790611796565b600782815481106104b6576104b66117cd565b600091825260209091206002600390920201015460ff16156104ea5760405162461bcd60e51b8152600401610477906117e3565b600b5460078381548110610500576105006117cd565b90600052602060002090600302016001015410156105605760405162461bcd60e51b815260206004820152601d60248201527f4d616a6f7269747920617070726f76616c206e6f7420726561636865640000006044820152606401610477565b6004544710156105b25760405162461bcd60e51b815260206004820152601a60248201527f4e6f7420656e6f7567682066756e647320617661696c61626c650000000000006044820152606401610477565b6001600783815481106105c7576105c76117cd565b60009182526020822060039190910201600201805460ff191692151592909217909155600a546004546040516001600160a01b03909216926108fc8215029290818181858888f19350505050158015610624573d6000803e3d6000fd5b506004546040805184815260208101929092527f80230996023d69b50793fa73f1919127c9d8e741d3989743c479169f22e7a28891015b60405180910390a15050565b60606007805480602002602001604051908101604052809291908181526020016000905b8282101561077e57838290600052602060002090600302016040518060800160405290816000820180546106be90611715565b80601f01602080910402602001604051908101604052809291908181526020018280546106ea90611715565b80156107375780601f1061070c57610100808354040283529160200191610737565b820191906000526020600020905b81548152906001019060200180831161071a57829003601f168201915b505050918352505060018281015460208084019190915260029093015460ff808216151560408501526101009091041615156060909201919091529183529201910161068b565b50505050905090565b600a546001600160a01b031633146107b15760405162461bcd60e51b81526004016104779061174f565b600354421015806107c6575060025460055410155b6108125760405162461bcd60e51b815260206004820152601760248201527f43616e6e6f7420656e642063616d706169676e207965740000000000000000006044820152606401610477565b600a805460ff60a01b1916600160a01b1790556002546005546040517f816dfe87ba5698a187c7e35e80b0ed9fb430befe75fb29bca588267bb5f70ea7926108609210151515815260200190565b60405180910390a1565b600180546103cc90611715565b6007548190811061089a5760405162461bcd60e51b815260040161047790611796565b336000908152600860205260409020546108f65760405162461bcd60e51b815260206004820152601a60248201527f4f6e6c7920636f6e7472696275746f72732063616e20766f74650000000000006044820152606401610477565b60078281548110610909576109096117cd565b600091825260209091206002600390920201015460ff161561093d5760405162461bcd60e51b8152600401610477906117e3565b60078281548110610950576109506117cd565b906000526020600020906003020160020160019054906101000a900460ff166109bb5760405162461bcd60e51b815260206004820152601860248201527f5769746864726177616c206e6f742072657175657374656400000000000000006044820152606401610477565b3360009081526008602052604090205460078054849081106109df576109df6117cd565b906000526020600020906003020160010160008282546109ff9190611830565b909155505033600081815260086020908152604091829020548251868152918201527fcb87df07b1c304492bd875a5c8b98672eca500939412809ea229afef1d745188910160405180910390a25050565b7ff0c57e16840df040f15088dc2f81fe391c3923bec73e23a9662efc9c229c6a008054600160401b810460ff16159067ffffffffffffffff16600081158015610a965750825b905060008267ffffffffffffffff166001148015610ab35750303b155b905081158015610ac1575080155b15610adf5760405163f92ee8a960e01b815260040160405180910390fd5b845467ffffffffffffffff191660011785558315610b0957845460ff60401b1916600160401b1785555b428911610b585760405162461bcd60e51b815260206004820152601e60248201527f446561646c696e65206d75737420626520696e207468652066757475726500006044820152606401610477565b60008a11610bb85760405162461bcd60e51b815260206004820152602760248201527f54617267657420616d6f756e74206d7573742062652067726561746572207468604482015266616e207a65726f60c81b6064820152608401610477565b60008811610c1b5760405162461bcd60e51b815260206004820152602a60248201527f5769746864726177616c206c696d6974206d7573742062652067726561746572604482015269207468616e207a65726f60b01b6064820152608401610477565b6000610c278d82611898565b506001610c348c82611898565b5060028a905560038990556004889055600a80546001600160a01b0319166001600160a01b03881617905560005b8751811015610d1b57600760405180608001604052808a8481518110610c8a57610c8a6117cd565b60209081029190910181015182526000828201819052604083018190526060909201829052835460018101855593825290208151919260030201908190610cd19082611898565b50602082015160018083019190915560408301516002909201805460609094015115156101000261ff00199315159390931661ffff19909416939093179190911790915501610c62565b508315610d6257845460ff60401b19168555604051600181527fc7f505b2f371ae2175ee4913f4499e1f2633a7b5936321eed1cdaeb6115181d29060200160405180910390a15b505050505050505050505050565b60606009805480602002602001604051908101604052809291908181526020018280548015610dc857602002820191906000526020600020905b81546001600160a01b03168152600190910190602001808311610daa575b5050505050905090565b600a546001600160a01b03163314610dfc5760405162461bcd60e51b81526004016104779061174f565b60075481908110610e1f5760405162461bcd60e51b815260040161047790611796565b60078281548110610e3257610e326117cd565b600091825260209091206002600390920201015460ff1615610e665760405162461bcd60e51b8152600401610477906117e3565b600160078381548110610e7b57610e7b6117cd565b906000526020600020906003020160020160016101000a81548160ff0219169083151502179055507fd5e85995d9bdcdafb72531ec59faef29167c16780583ca2068587fe896170c478260405161065b91815260200190565b600a54600160a01b900460ff16610f3e5760405162461bcd60e51b815260206004820152602860248201527f43616d706169676e206d75737420626520656e64656420746f207265717565736044820152671d081c99599d5b9960c21b6064820152608401610477565b60025460055410610fa85760405162461bcd60e51b815260206004820152602e60248201527f526566756e6473206e6f7420617661696c61626c6520666f722073756363657360448201526d7366756c2063616d706169676e7360901b6064820152608401610477565b33600090815260086020526040902054806110055760405162461bcd60e51b815260206004820152601a60248201527f4e6f20636f6e747269627574696f6e7320746f20726566756e640000000000006044820152606401610477565b336000818152600860205260408082208290555183156108fc0291849190818181858888f19350505050158015611040573d6000803e3d6000fd5b5060405181815233907fa171b6942063c6f2800ce40a780edce37baa2b618571b11eedd1e69e626e7d769060200160405180910390a250565b60035442106110bf5760405162461bcd60e51b815260206004820152601260248201527110d85b5c185a59db881a185cc8195b99195960721b6044820152606401610477565b600a54600160a01b900460ff16156111195760405162461bcd60e51b815260206004820152601860248201527f43616d706169676e20686173206265656e20636c6f73656400000000000000006044820152606401610477565b600034116111785760405162461bcd60e51b815260206004820152602660248201527f436f6e747269627574696f6e206d7573742062652067726561746572207468616044820152656e207a65726f60d01b6064820152608401610477565b3360009081526008602052604081205490036111d157600980546001810182556000919091527f6e1540171b6c0c960b71a7020d9f60077f6af931a8bbf590da0223dacf75c7af0180546001600160a01b031916331790555b33600090815260086020526040812080543492906111f0908490611830565b90915550506006805490600061120583611957565b9190505550346005600082825461121c9190611830565b9091555050600554606490611232906033611970565b61123c9190611987565b600b5560405134815233907f6770260ea820d2f539364e7617e021543aaf6d192f2fd2a47c20db6bd99a4eb99060200160405180910390a2565b6007818154811061128657600080fd5b90600052602060002090600302016000915090508060000180546112a990611715565b80601f01602080910402602001604051908101604052809291908181526020018280546112d590611715565b80156113225780601f106112f757610100808354040283529160200191611322565b820191906000526020600020905b81548152906001019060200180831161130557829003601f168201915b50505050600183015460029093015491929160ff80821692506101009091041684565b6000815180845260005b8181101561136b5760208185018101518683018201520161134f565b506000602082860101526020601f19601f83011685010191505092915050565b60208152600061139e6020830184611345565b9392505050565b80356001600160a01b03811681146113bc57600080fd5b919050565b6000602082840312156113d357600080fd5b61139e826113a5565b6000602082840312156113ee57600080fd5b5035919050565b6000602082016020835280845180835260408501915060408160051b86010192506020860160005b8281101561147c57603f1987860301845281518051608087526114436080880182611345565b602083810151898201526040808501511515908a015260609384015115159390980192909252509493840193919091019060010161141d565b50929695505050505050565b634e487b7160e01b600052604160045260246000fd5b604051601f8201601f1916810167ffffffffffffffff811182821017156114c7576114c7611488565b604052919050565b600082601f8301126114e057600080fd5b813567ffffffffffffffff8111156114fa576114fa611488565b61150d601f8201601f191660200161149e565b81815284602083860101111561152257600080fd5b816020850160208301376000918101602001919091529392505050565b600080600080600080600060e0888a03121561155a57600080fd5b873567ffffffffffffffff81111561157157600080fd5b61157d8a828b016114cf565b975050602088013567ffffffffffffffff81111561159a57600080fd5b6115a68a828b016114cf565b96505060408801359450606088013593506080880135925060a088013567ffffffffffffffff8111156115d857600080fd5b8801601f81018a136115e957600080fd5b803567ffffffffffffffff81111561160357611603611488565b8060051b6116136020820161149e565b9182526020818401810192908101908d84111561162f57600080fd5b6020850192505b8383101561167657823567ffffffffffffffff81111561165557600080fd5b6116648f6020838901016114cf565b83525060209283019290910190611636565b809650505050505061168a60c089016113a5565b905092959891949750929550565b602080825282518282018190526000918401906040840190835b818110156116d95783516001600160a01b03168352602093840193909201916001016116b2565b509095945050505050565b6080815260006116f76080830187611345565b60208301959095525091151560408301521515606090910152919050565b600181811c9082168061172957607f821691505b60208210810361174957634e487b7160e01b600052602260045260246000fd5b50919050565b60208082526027908201527f4f6e6c792066756e647261697365722063616e20706572666f726d20746869736040820152661030b1ba34b7b760c91b606082015260800190565b60208082526018908201527f4d696c6573746f6e6520646f6573206e6f742065786973740000000000000000604082015260600190565b634e487b7160e01b600052603260045260246000fd5b6020808252601b908201527f4d696c6573746f6e6520616c726561647920636f6d706c657465640000000000604082015260600190565b634e487b7160e01b600052601160045260246000fd5b808201808211156118435761184361181a565b92915050565b601f82111561189357806000526020600020601f840160051c810160208510156118705750805b601f840160051c820191505b81811015611890576000815560010161187c565b50505b505050565b815167ffffffffffffffff8111156118b2576118b2611488565b6118c6816118c08454611715565b84611849565b6020601f8211600181146118fa57600083156118e25750848201515b600019600385901b1c1916600184901b178455611890565b600084815260208120601f198516915b8281101561192a578785015182556020948501946001909201910161190a565b50848210156119485786840151600019600387901b60f8161c191681555b50505050600190811b01905550565b6000600182016119695761196961181a565b5060010190565b80820281158282048414176118435761184361181a565b6000826119a457634e487b7160e01b600052601260045260246000fd5b50049056fea2646970667358221220edfe7b1b07815c1255277dc9cdc5e5f962b31f096a3a735ba9cf22f0af65456664736f6c634300081a0033",
        "linkReferences": {}
    },
    "methodIdentifiers": {
        "amountRaised()": "7b3e5e7b",
        "campaignEnded()": "3bc47fbe",
        "contribute()": "d7bb99ba",
        "contributions(address)": "42e94c90",
        "deadline()": "29dcb0cf",
        "description()": "7284e416",
        "endCampaign()": "71aac7f9",
        "fundraiser()": "89585d10",
        "getContributors()": "af157c19",
        "getMilestones()": "629e4ed0",
        "initialize(string,string,uint256,uint256,uint256,string[],address)": "97a38746",
        "majority()": "b6e54bdf",
        "milestones(uint256)": "e89e4ed6",
        "name()": "06fdde03",
        "releaseFunds(uint256)": "4d68282f",
        "requestRefund()": "d5cef133",
        "requestWithdrawalForMilestone(uint256)": "bda1d595",
        "target()": "d4b83992",
        "totalContributions()": "37c08923",
        "voteOnMilestone(uint256)": "7a6f4518",
        "withdrawalLimit()": "7ddfe78d"
    },
    "id": 23
}