{"abi":[{"type":"constructor","inputs":[{"name":"_name","type":"string","internalType":"string"},{"name":"_description","type":"string","internalType":"string"},{"name":"_target","type":"uint256","internalType":"uint256"},{"name":"_deadline","type":"uint256","internalType":"uint256"},{"name":"_withdrawalLimit","type":"uint256","internalType":"uint256"},{"name":"milestoneDescriptions","type":"string[]","internalType":"string[]"}],"stateMutability":"nonpayable"},{"type":"function","name":"amountRaised","inputs":[],"outputs":[{"name":"","type":"uint256","internalType":"uint256"}],"stateMutability":"view"},{"type":"function","name":"campaignEnded","inputs":[],"outputs":[{"name":"","type":"bool","internalType":"bool"}],"stateMutability":"view"},{"type":"function","name":"contribute","inputs":[],"outputs":[],"stateMutability":"payable"},{"type":"function","name":"contributions","inputs":[{"name":"","type":"address","internalType":"address"}],"outputs":[{"name":"","type":"uint256","internalType":"uint256"}],"stateMutability":"view"},{"type":"function","name":"deadline","inputs":[],"outputs":[{"name":"","type":"uint256","internalType":"uint256"}],"stateMutability":"view"},{"type":"function","name":"description","inputs":[],"outputs":[{"name":"","type":"string","internalType":"string"}],"stateMutability":"view"},{"type":"function","name":"endCampaign","inputs":[],"outputs":[],"stateMutability":"nonpayable"},{"type":"function","name":"fundraiser","inputs":[],"outputs":[{"name":"","type":"address","internalType":"address"}],"stateMutability":"view"},{"type":"function","name":"getContributors","inputs":[],"outputs":[{"name":"","type":"address[]","internalType":"address[]"}],"stateMutability":"view"},{"type":"function","name":"getMilestones","inputs":[],"outputs":[{"name":"","type":"tuple[]","internalType":"struct Crowdfunding.Milestone[]","components":[{"name":"description","type":"string","internalType":"string"},{"name":"votes","type":"uint256","internalType":"uint256"},{"name":"completed","type":"bool","internalType":"bool"},{"name":"withdrawalRequested","type":"bool","internalType":"bool"}]}],"stateMutability":"view"},{"type":"function","name":"majority","inputs":[],"outputs":[{"name":"","type":"uint256","internalType":"uint256"}],"stateMutability":"view"},{"type":"function","name":"milestones","inputs":[{"name":"","type":"uint256","internalType":"uint256"}],"outputs":[{"name":"description","type":"string","internalType":"string"},{"name":"votes","type":"uint256","internalType":"uint256"},{"name":"completed","type":"bool","internalType":"bool"},{"name":"withdrawalRequested","type":"bool","internalType":"bool"}],"stateMutability":"view"},{"type":"function","name":"name","inputs":[],"outputs":[{"name":"","type":"string","internalType":"string"}],"stateMutability":"view"},{"type":"function","name":"releaseFunds","inputs":[{"name":"index","type":"uint256","internalType":"uint256"}],"outputs":[],"stateMutability":"nonpayable"},{"type":"function","name":"requestRefund","inputs":[],"outputs":[],"stateMutability":"nonpayable"},{"type":"function","name":"requestWithdrawalForMilestone","inputs":[{"name":"index","type":"uint256","internalType":"uint256"}],"outputs":[],"stateMutability":"nonpayable"},{"type":"function","name":"target","inputs":[],"outputs":[{"name":"","type":"uint256","internalType":"uint256"}],"stateMutability":"view"},{"type":"function","name":"totalContributions","inputs":[],"outputs":[{"name":"","type":"uint256","internalType":"uint256"}],"stateMutability":"view"},{"type":"function","name":"voteOnMilestone","inputs":[{"name":"index","type":"uint256","internalType":"uint256"}],"outputs":[],"stateMutability":"nonpayable"},{"type":"function","name":"withdrawRemainingFunds","inputs":[],"outputs":[],"stateMutability":"nonpayable"},{"type":"function","name":"withdrawalLimit","inputs":[],"outputs":[{"name":"","type":"uint256","internalType":"uint256"}],"stateMutability":"view"},{"type":"event","name":"CampaignEnded","inputs":[{"name":"successful","type":"bool","indexed":false,"internalType":"bool"}],"anonymous":false},{"type":"event","name":"ContributionMade","inputs":[{"name":"contributor","type":"address","indexed":true,"internalType":"address"},{"name":"amount","type":"uint256","indexed":false,"internalType":"uint256"}],"anonymous":false},{"type":"event","name":"FundsReleased","inputs":[{"name":"milestoneIndex","type":"uint256","indexed":false,"internalType":"uint256"},{"name":"amount","type":"uint256","indexed":false,"internalType":"uint256"}],"anonymous":false},{"type":"event","name":"FundsRequested","inputs":[{"name":"milestoneIndex","type":"uint256","indexed":false,"internalType":"uint256"}],"anonymous":false},{"type":"event","name":"RefundIssued","inputs":[{"name":"contributor","type":"address","indexed":true,"internalType":"address"},{"name":"amount","type":"uint256","indexed":false,"internalType":"uint256"}],"anonymous":false},{"type":"event","name":"VoteCasted","inputs":[{"name":"voter","type":"address","indexed":true,"internalType":"address"},{"name":"milestoneIndex","type":"uint256","indexed":false,"internalType":"uint256"},{"name":"votes","type":"uint256","indexed":false,"internalType":"uint256"}],"anonymous":false}],"bytecode":{"object":"0x608060405234801561001057600080fd5b50604051611b26380380611b2683398101604081905261002f91610314565b4283116100835760405162461bcd60e51b815260206004820152601e60248201527f446561646c696e65206d75737420626520696e2074686520667574757265000060448201526064015b60405180910390fd5b600084116100e35760405162461bcd60e51b815260206004820152602760248201527f54617267657420616d6f756e74206d7573742062652067726561746572207468604482015266616e207a65726f60c81b606482015260840161007a565b600082116101465760405162461bcd60e51b815260206004820152602a60248201527f5769746864726177616c206c696d6974206d7573742062652067726561746572604482015269207468616e207a65726f60b01b606482015260840161007a565b600061015287826104e4565b50600161015f86826104e4565b50600284905560038390556004829055600a80546001600160a01b0319163317905560005b815181101561023d57600660405180608001604052808484815181106101ac576101ac6105a2565b602090810291909101810151825260008282018190526040830181905260609092018290528354600181018555938252902081519192600302019081906101f390826104e4565b50602082015160018083019190915560408301516002909201805460609094015115156101000261ff00199315159390931661ffff19909416939093179190911790915501610184565b505050505050506105b8565b634e487b7160e01b600052604160045260246000fd5b604051601f8201601f191681016001600160401b038111828210171561028757610287610249565b604052919050565b600082601f8301126102a057600080fd5b81516001600160401b038111156102b9576102b9610249565b6102cc601f8201601f191660200161025f565b8181528460208386010111156102e157600080fd5b60005b82811015610300576020818601810151838301820152016102e4565b506000918101602001919091529392505050565b60008060008060008060c0878903121561032d57600080fd5b86516001600160401b0381111561034357600080fd5b61034f89828a0161028f565b602089015190975090506001600160401b0381111561036d57600080fd5b61037989828a0161028f565b604089015160608a015160808b015160a08c01519399509197509550935090506001600160401b038111156103ad57600080fd5b8701601f810189136103be57600080fd5b80516001600160401b038111156103d7576103d7610249565b8060051b6103e76020820161025f565b9182526020818401810192908101908c84111561040357600080fd5b6020850192505b838310156104495782516001600160401b0381111561042857600080fd5b6104378e60208389010161028f565b8352506020928301929091019061040a565b80955050505050509295509295509295565b600181811c9082168061046f57607f821691505b60208210810361048f57634e487b7160e01b600052602260045260246000fd5b50919050565b601f8211156104df57806000526020600020601f840160051c810160208510156104bc5750805b601f840160051c820191505b818110156104dc57600081556001016104c8565b50505b505050565b81516001600160401b038111156104fd576104fd610249565b6105118161050b845461045b565b84610495565b6020601f821160018114610545576000831561052d5750848201515b600019600385901b1c1916600184901b1784556104dc565b600084815260208120601f198516915b828110156105755787850151825560209485019460019092019101610555565b50848210156105935786840151600019600387901b60f8161c191681555b50505050600190811b01905550565b634e487b7160e01b600052603260045260246000fd5b61155f806105c76000396000f3fe60806040526004361061012a5760003560e01c80637b3e5e7b116100ab578063bda1d5951161006f578063bda1d5951461031c578063d4b839921461033c578063d5cef13314610352578063d7bb99ba14610367578063e89e4ed61461036f578063ef86ce8e1461039f57600080fd5b80637b3e5e7b146102805780637ddfe78d1461029657806389585d10146102ac578063af157c19146102e4578063b6e54bdf1461030657600080fd5b80634d68282f116100f25780634d68282f146101f2578063629e4ed01461021457806371aac7f9146102365780637284e4161461024b5780637a6f45181461026057600080fd5b806306fdde031461012f57806329dcb0cf1461015a57806337c089231461017e5780633bc47fbe1461019457806342e94c90146101c5575b600080fd5b34801561013b57600080fd5b506101446103b4565b6040516101519190611237565b60405180910390f35b34801561016657600080fd5b5061017060035481565b604051908152602001610151565b34801561018a57600080fd5b5061017060075481565b3480156101a057600080fd5b50600a546101b590600160a01b900460ff1681565b6040519015158152602001610151565b3480156101d157600080fd5b506101706101e0366004611251565b60086020526000908152604090205481565b3480156101fe57600080fd5b5061021261020d36600461127a565b610442565b005b34801561022057600080fd5b5061022961065c565b6040516101519190611293565b34801561024257600080fd5b5061021261077c565b34801561025757600080fd5b5061014461085f565b34801561026c57600080fd5b5061021261027b36600461127a565b61086c565b34801561028c57600080fd5b5061017060055481565b3480156102a257600080fd5b5061017060045481565b3480156102b857600080fd5b50600a546102cc906001600160a01b031681565b6040516001600160a01b039091168152602001610151565b3480156102f057600080fd5b506102f9610a59565b6040516101519190611326565b34801561031257600080fd5b50610170600b5481565b34801561032857600080fd5b5061021261033736600461127a565b610abb565b34801561034857600080fd5b5061017060025481565b34801561035e57600080fd5b50610212610bbd565b610212610d64565b34801561037b57600080fd5b5061038f61038a36600461127a565b610f61565b6040516101519493929190611372565b3480156103ab57600080fd5b50610212611030565b600080546103c1906113a3565b80601f01602080910402602001604051908101604052809291908181526020018280546103ed906113a3565b801561043a5780601f1061040f5761010080835404028352916020019161043a565b820191906000526020600020905b81548152906001019060200180831161041d57829003601f168201915b505050505081565b600a546001600160a01b031633146104755760405162461bcd60e51b815260040161046c906113dd565b60405180910390fd5b600654819081106104985760405162461bcd60e51b815260040161046c90611424565b600682815481106104ab576104ab61145b565b600091825260209091206002600390920201015460ff16156104df5760405162461bcd60e51b815260040161046c90611471565b600b54600683815481106104f5576104f561145b565b90600052602060002090600302016001015410156105555760405162461bcd60e51b815260206004820152601d60248201527f4d616a6f7269747920617070726f76616c206e6f742072656163686564000000604482015260640161046c565b6004544710156105a75760405162461bcd60e51b815260206004820152601a60248201527f4e6f7420656e6f7567682066756e647320617661696c61626c65000000000000604482015260640161046c565b6001600683815481106105bc576105bc61145b565b60009182526020822060039190910201600201805460ff191692151592909217909155600a546004546040516001600160a01b03909216926108fc8215029290818181858888f19350505050158015610619573d6000803e3d6000fd5b506004546040805184815260208101929092527f80230996023d69b50793fa73f1919127c9d8e741d3989743c479169f22e7a28891015b60405180910390a15050565b60606006805480602002602001604051908101604052809291908181526020016000905b8282101561077357838290600052602060002090600302016040518060800160405290816000820180546106b3906113a3565b80601f01602080910402602001604051908101604052809291908181526020018280546106df906113a3565b801561072c5780601f106107015761010080835404028352916020019161072c565b820191906000526020600020905b81548152906001019060200180831161070f57829003601f168201915b505050918352505060018281015460208084019190915260029093015460ff8082161515604085015261010090910416151560609092019190915291835292019101610680565b50505050905090565b600a546001600160a01b031633146107a65760405162461bcd60e51b815260040161046c906113dd565b600354421015806107bb575060025460055410155b6108075760405162461bcd60e51b815260206004820152601760248201527f43616e6e6f7420656e642063616d706169676e20796574000000000000000000604482015260640161046c565b600a805460ff60a01b1916600160a01b1790556002546005546040517f816dfe87ba5698a187c7e35e80b0ed9fb430befe75fb29bca588267bb5f70ea7926108559210151515815260200190565b60405180910390a1565b600180546103c1906113a3565b6006548190811061088f5760405162461bcd60e51b815260040161046c90611424565b336000908152600860205260409020546108eb5760405162461bcd60e51b815260206004820152601a60248201527f4f6e6c7920636f6e7472696275746f72732063616e20766f7465000000000000604482015260640161046c565b600682815481106108fe576108fe61145b565b600091825260209091206002600390920201015460ff16156109325760405162461bcd60e51b815260040161046c90611471565b600682815481106109455761094561145b565b906000526020600020906003020160020160019054906101000a900460ff166109c35760405162461bcd60e51b815260206004820152602a60248201527f5769746864726177616c206d75737420626520726571756573746564206265666044820152696f726520766f74696e6760b01b606482015260840161046c565b3360009081526008602052604090205460068054849081106109e7576109e761145b565b90600052602060002090600302016001016000828254610a0791906114be565b909155505033600081815260086020908152604091829020548251868152918201527fcb87df07b1c304492bd875a5c8b98672eca500939412809ea229afef1d74518891015b60405180910390a25050565b60606009805480602002602001604051908101604052809291908181526020018280548015610ab157602002820191906000526020600020905b81546001600160a01b03168152600190910190602001808311610a93575b5050505050905090565b600a546001600160a01b03163314610ae55760405162461bcd60e51b815260040161046c906113dd565b60065481908110610b085760405162461bcd60e51b815260040161046c90611424565b60068281548110610b1b57610b1b61145b565b600091825260209091206002600390920201015460ff1615610b4f5760405162461bcd60e51b815260040161046c90611471565b600160068381548110610b6457610b6461145b565b906000526020600020906003020160020160016101000a81548160ff0219169083151502179055507fd5e85995d9bdcdafb72531ec59faef29167c16780583ca2068587fe896170c478260405161065091815260200190565b600a54600160a01b900460ff16610c295760405162461bcd60e51b815260206004820152602a60248201527f43616d706169676e206d75737420626520656e64656420746f207265717565736044820152691d0818481c99599d5b9960b21b606482015260840161046c565b60025460055410610c935760405162461bcd60e51b815260206004820152602e60248201527f526566756e6473206e6f7420617661696c61626c6520666f722073756363657360448201526d7366756c2063616d706169676e7360901b606482015260840161046c565b3360009081526008602052604090205480610cf05760405162461bcd60e51b815260206004820152601a60248201527f4e6f20636f6e747269627574696f6e7320746f20726566756e64000000000000604482015260640161046c565b336000818152600860205260408082208290555183156108fc0291849190818181858888f19350505050158015610d2b573d6000803e3d6000fd5b5060405181815233907fa171b6942063c6f2800ce40a780edce37baa2b618571b11eedd1e69e626e7d769060200160405180910390a250565b6003544210610daa5760405162461bcd60e51b815260206004820152601260248201527110d85b5c185a59db881a185cc8195b99195960721b604482015260640161046c565b600a54600160a01b900460ff1615610e045760405162461bcd60e51b815260206004820152601860248201527f43616d706169676e20686173206265656e20636c6f7365640000000000000000604482015260640161046c565b60003411610e635760405162461bcd60e51b815260206004820152602660248201527f436f6e747269627574696f6e206d7573742062652067726561746572207468616044820152656e207a65726f60d01b606482015260840161046c565b336000908152600860205260408120549003610ebc57600980546001810182556000919091527f6e1540171b6c0c960b71a7020d9f60077f6af931a8bbf590da0223dacf75c7af0180546001600160a01b031916331790555b3360009081526008602052604081208054349290610edb9084906114be565b909155505060078054906000610ef0836114d7565b91905055503460056000828254610f0791906114be565b9091555050600554606490610f1d9060336114f0565b610f279190611507565b600b5560405134815233907f6770260ea820d2f539364e7617e021543aaf6d192f2fd2a47c20db6bd99a4eb99060200160405180910390a2565b60068181548110610f7157600080fd5b9060005260206000209060030201600091509050806000018054610f94906113a3565b80601f0160208091040260200160405190810160405280929190818152602001828054610fc0906113a3565b801561100d5780601f10610fe25761010080835404028352916020019161100d565b820191906000526020600020905b815481529060010190602001808311610ff057829003601f168201915b50505050600183015460029093015491929160ff80821692506101009091041684565b600a54600160a01b900460ff1661109a5760405162461bcd60e51b815260206004820152602860248201527f43616d706169676e206d75737420626520656e64656420746f2077697468647260448201526761772066756e647360c01b606482015260840161046c565b600254600554106111075760405162461bcd60e51b815260206004820152603160248201527f46756e647320617265206e6f7420726566756e6461626c6520666f72207375636044820152706365737366756c2063616d706169676e7360781b606482015260840161046c565b33600090815260086020526040902054806111645760405162461bcd60e51b815260206004820152601c60248201527f4e6f20636f6e747269627574696f6e7320746f20776974686472617700000000604482015260640161046c565b60055460009061117447846114f0565b61117e9190611507565b3360008181526008602052604080822082905551929350909183156108fc0291849190818181858888f193505050501580156111be573d6000803e3d6000fd5b5060405181815233907fa171b6942063c6f2800ce40a780edce37baa2b618571b11eedd1e69e626e7d7690602001610a4d565b6000815180845260005b81811015611217576020818501810151868301820152016111fb565b506000602082860101526020601f19601f83011685010191505092915050565b60208152600061124a60208301846111f1565b9392505050565b60006020828403121561126357600080fd5b81356001600160a01b038116811461124a57600080fd5b60006020828403121561128c57600080fd5b5035919050565b6000602082016020835280845180835260408501915060408160051b86010192506020860160005b8281101561131a57603f1987860301845281518051608087526112e160808801826111f1565b602083810151898201526040808501511515908a01526060938401511515939098019290925250949384019391909101906001016112bb565b50929695505050505050565b602080825282518282018190526000918401906040840190835b818110156113675783516001600160a01b0316835260209384019390920191600101611340565b509095945050505050565b60808152600061138560808301876111f1565b60208301959095525091151560408301521515606090910152919050565b600181811c908216806113b757607f821691505b6020821081036113d757634e487b7160e01b600052602260045260246000fd5b50919050565b60208082526027908201527f4f6e6c792066756e647261697365722063616e20706572666f726d20746869736040820152661030b1ba34b7b760c91b606082015260800190565b60208082526018908201527f4d696c6573746f6e6520646f6573206e6f742065786973740000000000000000604082015260600190565b634e487b7160e01b600052603260045260246000fd5b6020808252601b908201527f4d696c6573746f6e6520616c726561647920636f6d706c657465640000000000604082015260600190565b634e487b7160e01b600052601160045260246000fd5b808201808211156114d1576114d16114a8565b92915050565b6000600182016114e9576114e96114a8565b5060010190565b80820281158282048414176114d1576114d16114a8565b60008261152457634e487b7160e01b600052601260045260246000fd5b50049056fea26469706673582212205c7e20b4b8a54e30e16d62ed41f77e15758b6f2d8ed0f32e685e2ec5b4c7c53864736f6c634300081a0033","linkReferences":{}},"methodIdentifiers":{"amountRaised()":"7b3e5e7b","campaignEnded()":"3bc47fbe","contribute()":"d7bb99ba","contributions(address)":"42e94c90","deadline()":"29dcb0cf","description()":"7284e416","endCampaign()":"71aac7f9","fundraiser()":"89585d10","getContributors()":"af157c19","getMilestones()":"629e4ed0","majority()":"b6e54bdf","milestones(uint256)":"e89e4ed6","name()":"06fdde03","releaseFunds(uint256)":"4d68282f","requestRefund()":"d5cef133","requestWithdrawalForMilestone(uint256)":"bda1d595","target()":"d4b83992","totalContributions()":"37c08923","voteOnMilestone(uint256)":"7a6f4518","withdrawRemainingFunds()":"ef86ce8e","withdrawalLimit()":"7ddfe78d"},"id":27}